:020000003F2A95
:10000800FF00030E8301D9000A08D8008A0170088E
:10001800A0008B1C17288B1021080A3A031D1628EC
:10002800FF30A100A10A2008F00058088A00590EE4
:080038008300FF0E7F0E09009A
:1000400083120313FD01F8017008031900347406CC
:10005000FA00FA1BFD09FB01F41F3028F409F40A29
:10006000F01F3428F009F00A70087404FA00FA1B33
:1000700058287408F802F00D700DF80D7408F80790
:10008000F00D0630FC00700DF80D74087018F802C1
:10009000701CF807F00DFC0B4328701CF8077B1848
:1000A0006628FD1F0034F009F00AF809F80A003448
:1000B000F41F6328F01B60287008F800F001512835
:1000C000F001F00A0034F009FB0A3928F80A740834
:1000D0007802031D5128F801F00AF01F5128FF345F
:0200E000080016
:0E00E2008312031355088A0054088200080098
:1000F000831203138801D601D70180305706F00020
:1001000080307002031D8628033056020318BF2872
:100110000230F4002108F00020207808F000700878
:10012000013A031D9428282988155608F00057081D
:10013000F100F00DF10D70107008223E84000008EF
:1001400087000813081BA6280810A72808140816FB
:10015000081AAC288810AD2888140B30FB00263014
:10016000FC005D30FD00FD0BB328FC0BB328FB0B3E
:10017000B32800000000D60A0319D70A7D28881189
:10018000881008158618D1280230F4002108F000E4
:1001900020207808F0007008013A031DD028282993
:1001A000C228D601D70180305706F0008030700297
:1001B000031DDC2803305602031815290230F40011
:1001C0002108F00020207808F0007008013A031D93
:1001D000EA28282988175608F0005708F100F00D82
:1001E000F10D70107008223E84000008870008118D
:1001F0000819FC280812FD280816081408180229F6
:100200008812032988160B30FB002630FC005D3075
:10021000FD00FD0B0929FC0B0929FB0B0929000036
:100220000000D60A0319D70AD328881388120817A2
:10023000861827290230F4002108F00020207808D1
:10024000F0007008013A031D2629282918297B2867
:020250000800A4
:1002520071208A110A128000840AD40A0319D50A6D
:08026200F003031D2929080027
:10026A008312031388018817881B3D2988113E29A8
:10027A008815D601D70180305706F0008030700209
:10028A00031D49291430560203187B290230F40051
:10029A002108F00020207808F0007008003A031DB9
:1002AA0057293E2A5608F0005708F100F00DF10DC3
:1002BA0070107008223E8400000887000817081B87
:1002CA0068290810692908140B30FB002630FC0045
:1002DA005D30FD00FD0B6F29FC0B6F29FB0B6F29AD
:1002EA0000000000D60A0319D70A40298701013005
:1002FA00D6000030D70080305706F00080307002F8
:10030A00031D8929043056020318B7290230F40064
:10031A002108F00020207808F0007008003A031D38
:10032A0097293E2A081088140B30FB002630FC005F
:10033A005D30FD00FD0B9F29FC0B9F29FB0B9F29BC
:10034A00000000005608F0005708F100F00DF10D0A
:10035A0070107008223E840000088700D60A03192C
:10036A00D70A80298701D601D70180305706F000C5
:10037A0080307002031DC3290C3056020318FB2972
:10038A000230F4002108F00020207808F0007008FC
:10039A00003A031DD1293E2A88108818D629081345
:1003AA00D72908170816081ADC290811DD290815A3
:1003BA005608F0005708F100F00DF10D70107008A2
:1003CA00223E8400000887000B30FB002630FC0028
:1003DA005D30FD00FD0BEF29FC0BEF29FB0BEF292C
:1003EA0000000000D60A0319D70ABA29870188161D
:1003FA0008120130D6000030D70080305706F000CE
:10040A0080307002031D0B2A043056020318372A63
:10041A000230F4002108F00020207808F00070086B
:10042A00003A031D192A3E2A0B30FB002630FC0035
:10043A005D30FD00FD0B1F2AFC0B1F2AFB0B1F2A38
:10044A00000000005608F0005708F100F00DF10D09
:10045A0070107008223E840000088700D60A03192B
:10046A00D70A022A081108193C2A88123D2A881636
:04047A003E2908000F
:10047E0098228B170B168316031301178801861407
:10048E0086184B2A06104C2A0614870183128801FF
:10049E0087010230F4002108F00020207808F000D7
:1004AE007008003A03195D2A35215E2A7820502AF9
:0204BE005F2AB3
:1005300021308400333083120313F0006530D4007F
:080540000230D500292108005A
:0204CA000134FB
:1004CC00003400340134003402340034033400347A
:1004DC00043400340534003406340034073400345A
:1004EC00083400340934003410340034113400342E
:1004FC001234003413340034143400341534003402
:10050C0016340034173400341834003419340034E1
:10051C0020340034213400342234003400340034CC
:04052C000034003463
:02400E004A2F37
:00000001FF
